{
  "contractName": "EngSwap",
  "abi": [
    {
      "inputs": [
        {
          "internalType": "contract IERC20",
          "name": "_token",
          "type": "address"
        }
      ],
      "payable": false,
      "stateMutability": "nonpayable",
      "type": "constructor"
    },
    {
      "anonymous": false,
      "inputs": [
        {
          "indexed": false,
          "internalType": "address",
          "name": "_from",
          "type": "address"
        },
        {
          "indexed": false,
          "internalType": "bytes",
          "name": "_to",
          "type": "bytes"
        },
        {
          "indexed": false,
          "internalType": "uint256",
          "name": "_amount",
          "type": "uint256"
        },
        {
          "indexed": false,
          "internalType": "uint256",
          "name": "_nonce",
          "type": "uint256"
        }
      ],
      "name": "LogBurn",
      "type": "event"
    },
    {
      "constant": true,
      "inputs": [],
      "name": "burnNonce",
      "outputs": [
        {
          "internalType": "uint256",
          "name": "",
          "type": "uint256"
        }
      ],
      "payable": false,
      "stateMutability": "view",
      "type": "function"
    },
    {
      "constant": true,
      "inputs": [],
      "name": "token",
      "outputs": [
        {
          "internalType": "contract IERC20",
          "name": "",
          "type": "address"
        }
      ],
      "payable": false,
      "stateMutability": "view",
      "type": "function"
    },
    {
      "constant": false,
      "inputs": [
        {
          "internalType": "bytes",
          "name": "_recipient",
          "type": "bytes"
        },
        {
          "internalType": "uint256",
          "name": "_amount",
          "type": "uint256"
        }
      ],
      "name": "burnFunds",
      "outputs": [],
      "payable": false,
      "stateMutability": "nonpayable",
      "type": "function"
    }
  ],
  "bytecode": "0x608060405261dead600260006101000a81548173ffffffffffffffffffffffffffffffffffffffff021916908373ffffffffffffffffffffffffffffffffffffffff16021790555034801561005357600080fd5b506040516107c83803806107c88339818101604052602081101561007657600080fd5b8101908080519060200190929190505050806000806101000a81548173ffffffffffffffffffffffffffffffffffffffff021916908373ffffffffffffffffffffffffffffffffffffffff160217905550506106f1806100d76000396000f3fe608060405234801561001057600080fd5b50600436106100415760003560e01c8063474d6dea14610046578063edcc1b6f14610064578063fc0c546a14610129575b600080fd5b61004e610173565b6040518082815260200191505060405180910390f35b6101276004803603604081101561007a57600080fd5b810190808035906020019064010000000081111561009757600080fd5b8201836020820111156100a957600080fd5b803590602001918460018302840111640100000000831117156100cb57600080fd5b91908080601f016020809104026020016040519081016040528093929190818152602001838380828437600081840152601f19601f82011690508083019250505050505050919291929080359060200190929190505050610179565b005b6101316105b8565b604051808273ffffffffffffffffffffffffffffffffffffffff1673ffffffffffffffffffffffffffffffffffffffff16815260200191505060405180910390f35b60015481565b6001546001805401116101f4576040517f08c379a00000000000000000000000000000000000000000000000000000000081526004018080602001828103825260148152602001807f4e6f20617661696c61626c65206e6f6e6365732e00000000000000000000000081525060200191505060405180910390fd5b3381806000809054906101000a900473ffffffffffffffffffffffffffffffffffffffff1673ffffffffffffffffffffffffffffffffffffffff166370a08231846040518263ffffffff1660e01b8152600401808273ffffffffffffffffffffffffffffffffffffffff1673ffffffffffffffffffffffffffffffffffffffff16815260200191505060206040518083038186803b15801561029557600080fd5b505afa1580156102a9573d6000803e3d6000fd5b505050506040513d60208110156102bf57600080fd5b81019080805190602001909291905050501015610327576040517f08c379a000000000000000000000000000000000000000000000000000000000815260040180806020018281038252602e81526020018061068f602e913960400191505060405180910390fd5b61033c600180546105dd90919063ffffffff16565b6001819055506000809054906101000a900473ffffffffffffffffffffffffffffffffffffffff1673ffffffffffffffffffffffffffffffffffffffff166323b872dd33600260009054906101000a900473ffffffffffffffffffffffffffffffffffffffff16866040518463ffffffff1660e01b8152600401808473ffffffffffffffffffffffffffffffffffffffff1673ffffffffffffffffffffffffffffffffffffffff1681526020018373ffffffffffffffffffffffffffffffffffffffff1673ffffffffffffffffffffffffffffffffffffffff1681526020018281526020019350505050602060405180830381600087803b15801561044057600080fd5b505af1158015610454573d6000803e3d6000fd5b505050506040513d602081101561046a57600080fd5b81019080805190602001909291905050506104d0576040517f08c379a00000000000000000000000000000000000000000000000000000000081526004018080602001828103825260298152602001806106666029913960400191505060405180910390fd5b7f22592b4048f2c2551a49a6eb7a488c3596cb162d706872532025d19d04cdf393338585600154604051808573ffffffffffffffffffffffffffffffffffffffff1673ffffffffffffffffffffffffffffffffffffffff16815260200180602001848152602001838152602001828103825285818151815260200191508051906020019080838360005b8381101561057557808201518184015260208101905061055a565b50505050905090810190601f1680156105a25780820380516001836020036101000a031916815260200191505b509550505050505060405180910390a150505050565b6000809054906101000a900473ffffffffffffffffffffffffffffffffffffffff1681565b60008082840190508381101561065b576040517f08c379a000000000000000000000000000000000000000000000000000000000815260040180806020018281038252601b8152602001807f536166654d6174683a206164646974696f6e206f766572666c6f77000000000081525060200191505060405180910390fd5b809150509291505056fe556e61626c6520746f207472616e7366657220746f20746865206275726e696e672061646472657373496e73756666696369656e7420455243323020746f6b656e2062616c616e636520666f722064656c69766572792ea265627a7a72315820dafbc8aae3254163860f35638f8e26c6a1aa387431e3dc4a72a0655d63fc2c6464736f6c63430005100032",
  "source": "pragma solidity ^0.5.0;\n\nimport \"@openzeppelin/contracts/token/ERC20/IERC20.sol\";\nimport \"@openzeppelin/contracts/math/SafeMath.sol\";\n\ncontract EngSwap {\n    using SafeMath for uint256;\n\n    IERC20 public token;\n    uint256 public burnNonce;\n    address burningAddress = 0x000000000000000000000000000000000000dEaD; // TODO: What address do we use here?\n\n    constructor(IERC20 _token) public {\n        token = _token;\n    }\n\n    /*\n    * Event declarations\n    */\n    event LogBurn(\n        address _from,\n        bytes _to,\n        uint256 _amount,\n        uint256 _nonce\n    );\n\n    modifier canDeliver(address _sender, uint256 _amount) {\n        require(\n            token.balanceOf(_sender) >= _amount,\n            'Insufficient ERC20 token balance for delivery.'\n        );\n        _;\n    }\n\n    modifier availableNonce() {\n        require(\n            burnNonce + 1 > burnNonce,\n            'No available nonces.'\n        );\n        _;\n    }\n\n    /*\n    * Burn funds and emit a LogBurn event for emission on the Enigma Chain\n    *\n    * @param _recipient: The intended recipient's Enigma Chain address.\n    * @param _amount: The amount of ENG tokens to be itemized.\n    */\n    function burnFunds(bytes memory _recipient, uint256 _amount)\n    availableNonce\n    canDeliver(msg.sender, _amount)\n    public {\n        // Increment the lock nonce\n        burnNonce = burnNonce.add(1);\n        // The funds are gone forever\n        require(token.transferFrom(msg.sender, burningAddress, _amount), \"Unable to transfer to the burning address\");\n        emit LogBurn(\n            msg.sender,\n            _recipient,\n            _amount,\n            burnNonce\n        );\n    }\n}\n",
  "sourcePath": "/Users/taariq/code/scrt-swap-taariq/contracts/EngSwap.sol",
  "compiler": {
    "name": "solc",
    "version": "0.5.16+commit.9c3226ce.Emscripten.clang"
  },
  "schemaVersion": "3.0.23",
  "updatedAt": "2020-04-19T08:27:58.879Z",
  "networkType": "ethereum",
  "devdoc": {
    "methods": {}
  },
  "userdoc": {
    "methods": {}
  }
}